:060000000A128A110E280D
:10000800FE00030EF1000408F2000A08F3000A12C9
:100018008A1143290A128A11112883133030FD00EE
:100028000130FE00F630FF00203084000A128A11E9
:10003800E7210A128A11F90183010A128A11CF29CC
:1000480083120313B501B11F2A282B283228B009BF
:10005800B109B00A0319B10AB501B50AB31F3528A9
:1000680036283F28B209B309B20A0319B30A013086
:10007800F4007408B506B601B70130083104031955
:10008800462847287E28B401B40A552801300310B1
:10009800B00DB10DFF3E031D4B280130F40074086C
:1000A800B407B11F582859284A2801300310B60D43
:1000B800B70DFF3E031D5A2831083302031D662879
:1000C80030083202031C69286A2871283008B202F5
:1000D8003108031CB303B302361401300310B10C0A
:1000E800B00CFF3E031D72280130B402031D7D28A9
:1000F8007E28592835080319822883288828B609B4
:10010800B709B60A0319B70A3708B1003608B000AC
:100118000800643083120313B0000030B100770880
:10012800B800B9013808B2003908B3000A128A11B8
:1001380024200A128A11831203133008BA003A08DD
:10014800BB006430B0000030B1007708B800B901D6
:100158003808B2003908B3000A128A11E8200A12D6
:100168008A11831203133008BA003A08F6000A30DD
:10017800B0000030B1007608B800B9013808B20004
:100188003908B3000A128A1124200A128A1183122C
:1001980003133008BA003A08BC000A30B000003037
:1001A800B1007608B800B9013808B2003908B300C0
:1001B8000A128A11E8200A128A11831203133008DE
:1001C800BA003A08F800080083120313B501B31FF8
:1001D800EE28EF28F628B209B309B20A0319B30AC0
:1001E800B501B50AB11FF928FA28FF28B009B109E5
:1001F800B00A0319B10A3008310403190429052982
:100208003429B401B40A132901300310B00DB10D1B
:10021800FF3E031D09290130F4007408B407B11F1B
:1002280016291729082931083302031D1D2930080A
:100238003202031C2029212927293008B20231085B
:10024800031CB303B30201300310B10CB00CFF3E22
:10025800031D28290130B402031D33293429172925
:1002680035080319382939293E29B209B309B20AD0
:100278000319B30A3308B1003208B00008000B1C98
:100288004629472958298312031386184C294D29D2
:1002980051290130F000700887070618542955299C
:1002A8005729013087020B100B1D5B295C29932904
:1002B8008312031389017908031D632964296F29AF
:1002C800091109147808203E840083130008880067
:1002D800F901F90A90297903031D732974298129E1
:1002E800091089143C08203E840083130008880004
:1002F8000230F0007008F900902902307906031DD9
:10030800862987299029891009153B08203E8400F1
:10031800831300088800F9010B11D9308100730894
:100328008A0072088400710E8300FE0E7E0E09009A
:100338008316031788018901831603138701831223
:10034800031387018316031388018312031388019B
:100358008316031389018312031389018316031378
:10036800061486140F178F160F160F148113151401
:1003780095148B178B168B15161496140B100B11DE
:1003880081118112011581140114D93083120313CC
:100398008100F90108000A128A119C210A128A11A7
:1003A8000A128A118D200A128A1183120313070870
:1003B800F5007508F700D4290A128A110E287E085C
:1003C8008A007F0882000A128A11E3210A128A1120
:1003D8008000840A04087D0603190034FF0A031903
:1003E800FE0AE7293F3406345B344F3466346D34F3
:1003F8007D3407347F346F3477347C3439345E3459
:04040800793471349E
:08400000FF3FFF3FFF3FFF3FC0
:04400E00D420FF3F7C
:00000001FF
